:020000040000FA
:100000000C9462000C9429040C9402040C948A0051
:100010000C948A000C948A000C948A000C948A0038
:100020000C948A000C948A000C948A000C948A0028
:100030000C948A000C948A000C948A000C948A0018
:100040000C94B8030C948A000C9486030C946003FF
:100050000C948A000C948A000C948A000C948A00F8
:100060000C948A000C948A000000000024002700F1
:100070002A0000000000250028002B0000000000DE
:1000800023002600290004040404040404040202DA
:100090000202020203030303030301020408102007
:1000A0004080010204081020010204081020000012
:1000B0000008000201000003040700000000000027
:1000C00000005B0711241FBECFEFD8E0DEBFCDBF1D
:1000D00011E0A0E0B1E0E4E1F2E102C005900D9290
:1000E000AE31B107D9F721E0AEE1B1E001C01D9218
:1000F000A13EB207E1F710E0C2E6D0E004C02197CC
:10010000FE010E940209C136D107C9F70E945004BE
:100110000C9408090C940000AF92BF92CF92DF922A
:10012000EF92FF920F931F93CF93DF936C017B01AC
:100130008B01040F151FEB015E01AE18BF08C0173D
:10014000D10759F06991D601ED91FC910190F081B0
:10015000E02DC6010995892B79F7C501DF91CF9173
:100160001F910F91FF90EF90DF90CF90BF90AF90D5
:100170000895FC01538D448D252F30E0842F90E0AD
:10018000821B930B541710F0CF9608950197089592
:10019000FC01918D828D981761F0A28DAE0FBF2F5B
:1001A000B11D5D968C91928D9F5F9F73928F90E0B1
:1001B00008958FEF9FEF0895FC01918D828D981720
:1001C00031F0828DE80FF11D858D90E008958FEF5D
:1001D0009FEF0895FC01918D228D892F90E0805C26
:1001E0009F4F821B91098F739927089584E491E0B2
:1001F0000E94EA0021E0892B09F420E0822F089573
:1002000080E090E0892B29F00E94F60081110C9487
:1002100000000895FC01A48DA80FB92FB11DA35AA9
:10022000BF4F2C91848D90E001968F739927848F16
:10023000A689B7892C93A089B1898C918370806439
:100240008C93938D848D981306C00288F389E02DDA
:1002500080818F7D80830895EF92FF920F931F938B
:10026000CF93DF93EC0181E0888F9B8D8C8D981369
:100270001AC0E889F989808185FF15C09FB7F89475
:10028000EE89FF896083E889F989808183708064C1
:1002900080839FBF81E090E0DF91CF911F910F910C
:1002A000FF90EF900895F62E0B8D10E00F5F1F4F1B
:1002B0000F731127E02E8C8D8E110CC00FB607FC2A
:1002C000FACFE889F989808185FFF5CFCE010E94B8
:1002D0000A01F1CFEB8DEC0FFD2FF11DE35AFF4F1B
:1002E000F0829FB7F8940B8FEA89FB898081806246
:1002F000CFCFCF93DF93EC01888D8823B9F0AA8903
:10030000BB89E889F9898C9185FD03C0808186FDD0
:100310000DC00FB607FCF7CF8C9185FFF2CF80811F
:1003200085FFEDCFCE010E940A01E9CFDF91CF9189
:100330000895833081F028F4813099F08230A9F05B
:1003400008958730A9F08830C9F08430B1F48091E5
:1003500080008F7D03C0809180008F778093800024
:10036000089584B58F7784BD089584B58F7DFBCFC4
:100370008091B0008F778093B00008958091B00095
:100380008F7DF9CF1F93CF93DF93282F30E0F901B2
:10039000E255FF4F8491F901E656FF4FD491F901E0
:1003A000EA57FF4FC491CC23A9F0162F81110E9468
:1003B0009901EC2FF0E0EE0FFF1FEE58FF4FA591D3
:1003C000B4918FB7F894EC91111108C0D095DE2349
:1003D000DC938FBFDF91CF911F910895DE2BF8CF73
:1003E000CF93DF9390E0FC01E656FF4F24918A57AC
:1003F0009F4FFC0184918823D1F090E0880F991FD2
:10040000FC01E859FF4FA591B491FC01EE58FF4F54
:10041000C591D491623071F49FB7F8943C91822FCA
:10042000809583238C93E8812E2B28839FBFDF91B7
:10043000CF9108958FB7F894EC912E2B2C938FBF0A
:10044000F6CF3FB7F8948091270190912801A091B1
:100450002901B0912A0126B5A89B05C02F3F19F0AC
:100460000196A11DB11D3FBFBA2FA92F982F882734
:10047000BC01CD01620F711D811D911D42E0660F0F
:10048000771F881F991F4A95D1F70895CF92DF9261
:10049000EF92FF92809134019091350101969093F3
:1004A000350180933401C0903E01D0903F01E0902F
:1004B0004001F0904101C0921E01D0921F01E092D4
:1004C0002001F09221010E94210260933E0170936D
:1004D0003F0180934001909341016C197D098E0981
:1004E0009F0960933A0170933B0180933C01909384
:1004F0003D01FF90EF90DF90CF9008958F929F92F3
:10050000AF92BF92CF92DF92EF92FF926B017C018C
:100510000E9421024B015C01C114D104E104F104E9
:10052000B9F00E942102681979098A099B09683E7D
:1005300073408105910580F321E0C21AD108E108DA
:10054000F10888EE880E83E0981EA11CB11CE4CF50
:10055000FF90EF90DF90CF90BF90AF909F908F90E3
:10056000089508958F929F92AF92BF920F931F9319
:10057000CF93DF93CDB7DEB7A1970FB6F894DEBF68
:100580000FBECDBF19A2423008F44AE08E010F5DC4
:100590001F4F842E912CB12CA12CA50194010E94F7
:1005A000A707E62FB901CA01EA3044F5E05DD8019A
:1005B000EE938D01232B242B252B79F790E080E0FF
:1005C000109769F0FD0101900020E9F73197AF0124
:1005D0004A1B5B0BBD0184E491E00E948C00A19654
:1005E0000FB6F894DEBF0FBECDBFDF91CF911F9144
:1005F0000F91BF90AF909F908F900895E95CD7CFF7
:10060000FC0101900020E9F73197AF01481B590B1D
:10061000BC0184E491E00C948C00BC0190E080E08B
:100620004AE00C94B2020F931F93CF93DF93EC0137
:100630008B0184E491E00E94C8008093420186E12E
:1006400091E00E94000360914201677070E090E0C9
:1006500080E04AE00E94B20288E191E0CA30D10510
:1006600058F089E191E0C436D10530F0C83E83E00E
:10067000D807F8F48AE191E00E940003CE010E94BD
:100680000D0388E191E00A30110538F089E191E02D
:100690000436110510F08AE191E00E940003C801C0
:1006A0000E940D0380914201DF91CF911F910F9124
:1006B0000895C03187E2D80708F78BE191E0DCCFDD
:1006C0001F920F920FB60F9211242F933F934F93C7
:1006D0005F936F937F938F939F93AF93BF93EF93AA
:1006E000FF9384E491E00E940A01FF91EF91BF9192
:1006F000AF919F918F917F916F915F914F913F91BA
:100700002F910F900FBE0F901F9018951F920F9270
:100710000FB60F9211242F938F939F93EF93FF9314
:10072000E0915401F09155018081E0915A01F091DE
:100730005B0182FD1BC0908180915D018F5F8F7393
:1007400020915E01821741F0E0915D01F0E0EC5BE9
:10075000FE4F958F80935D01FF91EF919F918F9157
:100760002F910F900FBE0F901F9018958081F4CF9E
:100770001F920F920FB60F9211242F933F938F93D6
:100780009F93AF93BF938091230190912401A091F7
:100790002501B09126013091220123E0230F2D374E
:1007A00058F50196A11DB11D2093220180932301CC
:1007B00090932401A0932501B093260180912701F5
:1007C00090912801A0912901B0912A010196A11DC3
:1007D000B11D8093270190932801A0932901B09324
:1007E0002A01BF91AF919F918F913F912F910F90CF
:1007F0000FBE0F901F90189526E8230F0296A11D9B
:10080000B11DD2CF1F920F920FB60F9211242F93CA
:100810003F934F935F936F937F938F939F93AF9388
:10082000BF93EF93FF93E0910201F09103010995CB
:10083000FF91EF91BF91AF919F918F917F916F91B8
:100840005F914F913F912F910F900FBE0F901F908E
:1008500018951F920F920FB60F9211242F933F936A
:100860004F935F936F937F938F939F93AF93BF93B8
:10087000EF93FF93E0910001F09101010995FF9141
:10088000EF91BF91AF919F918F917F916F915F9108
:100890004F913F912F910F900FBE0F901F90189581
:1008A000789484B5826084BD84B5816084BD85B54B
:1008B000826085BD85B5816085BD80916E00816057
:1008C00080936E00109281008091810082608093FD
:1008D00081008091810081608093810080918000FF
:1008E0008160809380008091B10084608093B1002A
:1008F0008091B00081608093B00080917A00846024
:1009000080937A0080917A00826080937A0080914F
:100910007A00816080937A0080917A008068809369
:100920007A001092C10061E086E00E94F00161E06F
:1009300088E00E94F00161E089E00E94F00161E03E
:1009400085E00E94F00161E08BE00E94F00161E02F
:100950008AE00E94F00162E084E00E94F00162E01F
:1009600083E00E94F00186E492E09093030180937B
:10097000020180916900837F886080936900E99A11
:10098000E0915401F091550182E08083E0915001A3
:10099000F09151011082E0915201F09153018FECDE
:1009A000808310925C01E0915801F091590186E03A
:1009B0008083E0915601F0915701808180618083AE
:1009C000E0915601F0915701808188608083E09129
:1009D0005601F0915701808180688083E091560133
:1009E000F091570180818F7D808360E08BE00E94D1
:1009F000C20130E4432E37E7532E3BE1632E712CC6
:100A000088248A9443E0942EA12CB12C52ECC52E5C
:100A1000DD24D394E12CF12C16E40E942102AB01D9
:100A2000BC0180913E0190913F01A0914001B091A5
:100A30004101805C9D4BA04FBF4F84179507A607CF
:100A4000B70708F4E5C120913A0130913B0140918C
:100A50003C0150913D01C301B2010E94A7073093B0
:100A60003901209338018091360190913701873CFC
:100A7000910508F0D2C1609134017091350190E088
:100A800080E00E94070820E030E040E05FE30E9441
:100A90006D080E94D8077093370160933601109358
:100AA0007C0080917A00806480937A0080917A0043
:100AB00086FDFCCF8091780020917900282F30E0CE
:100AC000A8ECB0E00E94C907A50194010E94880724
:100AD00020933301C0913801D091390161E02C1786
:100AE0003D0708F060E08BE00E94C2019E01AFEF7D
:100AF000B0E00E94C907A70196010E948807C22F93
:100B0000D22F61E08AE00E94F001C1118DC160E046
:100B10008AE00E94C201C0913801D0913901BE0122
:100B200090E080E0982F872F762F6627A701960107
:100B30000E948807322E2093320130E0A4EBB0E00F
:100B40000E94C9077093310185E090E090933001D5
:100B500080932F0100912E01031508F05BC060E027
:100B600086E00E94C20161E088E00E94C20160E06C
:100B700089E00E94C20160E085E00E94C20165E058
:100B800070E080E090E00E947E0260E086E00E94DB
:100B9000C20160E088E00E94C20161E089E00E9439
:100BA000C20160E085E00E94C20165E070E080E083
:100BB00090E00E947E0261E086E00E94C20160E057
:100BC00088E00E94C20160E089E00E94C20160E00A
:100BD00085E00E94C20165E070E080E090E00E9444
:100BE0007E0260E086E00E94C20160E088E00E9430
:100BF000C20160E089E00E94C20161E085E00E94DC
:100C0000C20165E070E080E090E00E947E020F5F2C
:100C100000932E0100912E01301608F05BC060E0B9
:100C200086E00E94C20160E088E00E94C20160E0AC
:100C300089E00E94C20161E085E00E94C20165E096
:100C400070E080E090E00E947E0261E086E00E9419
:100C5000C20160E088E00E94C20160E089E00E9479
:100C6000C20160E085E00E94C20165E070E080E0C2
:100C700090E00E947E0260E086E00E94C20160E097
:100C800088E00E94C20161E089E00E94C20160E048
:100C900085E00E94C20165E070E080E090E00E9483
:100CA0007E0260E086E00E94C20161E088E00E946E
:100CB000C20160E089E00E94C20160E085E00E941C
:100CC000C20165E070E080E090E00E947E02015089
:100CD00000932E0180912E01381228C060E086E03A
:100CE0000E94C20160E088E00E94C20160E089E0E9
:100CF0000E94C20160E085E00E94C20165E070E0F0
:100D000080E090E00E947E0265E070E080E090E08C
:100D10000E947E0265E070E080E090E00E947E022A
:100D200065E070E080E090E00E947E0220902D015E
:100D300020922C01E2EBF0E08491EEE9F0E03490B7
:100D4000EAE8F0E00491002379F081110E94990112
:100D5000E02FF0E0EE0FFF1FE458FF4FA591B49194
:100D60008C91382281E009F480E080932D0181117B
:100D70003CC0F1E02F1239C01092350110923401BD
:100D800080912B0180FD16C00091330180914201BA
:100D90008093430184E491E00E94EA00181619064A
:100DA000FCF4602F70E0CE010E94130380912B01B0
:100DB00080FF16C000913101C0913601D0913701FA
:100DC000809142018093430184E491E00E94EA0013
:100DD000181619062CF4602F70E0CE010E94130340
:100DE00080912B018F5F80932B016AE070E080E09F
:100DF00090E00E947E0280E090E0892B09F40DCE05
:100E00000E94F600882309F407CE0E94000004CE59
:100E1000109239011092380126CE87EC90E0909321
:100E20003701809336013BCECF3F11F461E070CEA5
:100E3000E8EBF0E08491833019F138F48130B1F0BF
:100E40008230C9F0D7FDF2CF62CE873021F18830F1
:100E500051F18430B9F780918000806280938000E6
:100E6000D0E0D0938B00C0938A0055CE84B58068C3
:100E700084BDC7BD50CE84B5806284BDC8BD4BCE95
:100E800080918000806880938000D0E0D0938900BA
:100E9000C093880040CE8091B00080688093B000FD
:100EA000C093B30038CE8091B00080628093B000D0
:100EB000C093B40030CEE4E4F1E01382128288EEF5
:100EC00093E0A0E0B0E084839583A683B78388E0B5
:100ED00091E09183808385EC90E09587848784EC12
:100EE00090E09787868780EC90E0918B808B81ECF7
:100EF00090E0938B828B82EC90E0958B848B86ECD8
:100F000090E0978B868B118E128E138E148E08951F
:100F1000052E97FB1EF400940E949F0757FD07D0F3
:100F20000E94A70707FC03D04EF40C949F0750952E
:100F30004095309521953F4F4F4F5F4F08959095C5
:100F40008095709561957F4F8F4F9F4F0895A1E2D7
:100F50001A2EAA1BBB1BFD010DC0AA1FBB1FEE1F33
:100F6000FF1FA217B307E407F50720F0A21BB30B7E
:100F7000E40BF50B661F771F881F991F1A9469F7FA
:100F800060957095809590959B01AC01BD01CF0156
:100F90000895A29FB001B39FC001A39F700D811D52
:100FA0001124911DB29F700D811D1124911D089572
:100FB0000E944C0888F09F5798F0B92F9927B75195
:100FC000B0F0E1F0660F771F881F991F1AF0BA95ED
:100FD000C9F714C0B13091F00E946608B1E00895DD
:100FE0000C946608672F782F8827B85F39F0B93FCF
:100FF000CCF3869577956795B395D9F73EF49095A0
:101000008095709561957F4F8F4F9F4F0895E8941D
:1010100009C097FB3EF490958095709561957F4F40
:101020008F4F9F4F9923A9F0F92F96E9BB279395EE
:10103000F695879577956795B795F111F8CFFAF4FE
:10104000BB0F11F460FF1BC06F5F7F4F8F4F9F4F2F
:1010500016C0882311F096E911C0772321F09EE88D
:10106000872F762F05C0662371F096E8862F70E0F3
:1010700060E02AF09A95660F771F881FDAF7880FCD
:101080009695879597F9089557FD9058440F551FE9
:1010900059F05F3F71F04795880F97FB991F61F0FA
:1010A0009F3F79F087950895121613061406551F71
:1010B000F2CF4695F1DF08C0161617061806991FDD
:1010C000F1CF86957105610508940895E894BB27D2
:1010D00066277727CB0197F908950E9480080C9422
:1010E000F1080E94E30838F00E94EA0820F09523F6
:1010F00011F00C94DA080C94E00811240C946708A1
:101100000E94440870F3959FC1F3950F50E0551F5E
:10111000629FF001729FBB27F00DB11D639FAA274C
:10112000F00DB11DAA1F649F6627B00DA11D661F9B
:10113000829F2227B00DA11D621F739FB00DA11DBC
:10114000621F839FA00D611D221F749F3327A00D76
:10115000611D231F849F600D211D822F762F6A2F12
:1011600011249F5750409AF0F1F088234AF0EE0F77
:10117000FF1FBB1F661F771F881F91505040A9F7A4
:101180009E3F510580F00C94DA080C9467085F3F8D
:10119000E4F3983ED4F3869577956795B795F795E0
:1011A000E7959F5FC1F7FE2B880F911D9695879558
:1011B00097F9089597F99F6780E870E060E00895D7
:1011C0009FEF80EC089500240A941616170618065F
:1011D0000906089500240A9412161306140605063B
:1011E0000895092E0394000C11F4882352F0BB0FCC
:1011F00040F4BF2B11F460FF04C06F5F7F4F8F4F2F
:101200009F4F0895EE0FFF1F0590F491E02D099474
:10121000F894FFCFB102B102000000002C018C0055
:10122000B9007901EA00C800DC002A002020202053
:021230000000BC
:107800000C94343C0C94513C0C94513C0C94513CE1
:107810000C94513C0C94513C0C94513C0C94513CB4
:107820000C94513C0C94513C0C94513C0C94513CA4
:107830000C94513C0C94513C0C94513C0C94513C94
:107840000C94513C0C94513C0C94513C0C94513C84
:107850000C94513C0C94513C0C94513C0C94513C74
:107860000C94513C0C94513C11241FBECFEFD8E036
:10787000DEBFCDBF11E0A0E0B1E0ECE9FFE702C060
:1078800005900D92A230B107D9F712E0A2E0B1E065
:1078900001C01D92AD30B107E1F70E942D3D0C945F
:1078A000CC3F0C94003C982F959595959595959582
:1078B000905D8F708A307CF0282F295A8091C0000B
:1078C00085FFFCCF9093C6008091C00085FFFCCF60
:1078D0002093C6000895282F205DF0CF982F809127
:1078E000C00085FFFCCF9093C6000895EF92FF92F1
:1078F0000F931F93EE24FF2487018091C00087FD22
:1079000017C00894E11CF11C011D111D81E4E8164B
:1079100082E4F8068FE0080780E0180770F3E09132
:107920000401F091050109958091C00087FFE9CF1E
:107930008091C6001F910F91FF90EF9008950E94D3
:10794000763C982F8091C00085FFFCCF9093C600B5
:1079500091362CF490330CF09053892F089597555D
:10796000892F08951F930E949F3C182F0E949F3CCF
:107970001295107F810F1F9108951F93182F882350
:1079800021F00E94763C1150E1F71F9108951F935A
:10799000182F0E94763C803249F0809103018F5F5E
:1079A000809303018530C1F01F9108958091C0003C
:1079B00085FFFCCF84E18093C6008091C00085FFE5
:1079C000FCCF1093C6008091C00085FFFCCF80E102
:1079D0008093C6001F910895E0910401F091050184
:1079E00009951F9108950E94763C803241F0809164
:1079F00003018F5F80930301853081F008958091AA
:107A0000C00085FFFCCF84E18093C6008091C00058
:107A100085FFFCCF80E18093C6000895E0910401CA
:107A2000F09105010995089540E951E08823A1F0FE
:107A30002D9A28EE33E0FA013197F1F721503040CA
:107A4000D1F72D9828EE33E0FA013197F1F7215064
:107A50003040D1F7815061F708953F924F925F9285
:107A60006F927F928F929F92AF92BF92CF92DF924E
:107A7000EF92FF920F931F93CF93DF93000080E16B
:107A80008093C4001092C50088E18093C10086E015
:107A90008093C2005098589A259A81E00E94143D24
:107AA00024E1F22E9EE1E92E85E9D82E0FE0C02ECA
:107AB00010E1B12EAA24A394B1E49B2EA6E58A2E50
:107AC000F2E57F2EE0E26E2E79E4572E63E5462E36
:107AD00050E5352E0E94763C8033B1F18133B9F107
:107AE000803409F46FC0813409F476C0823409F41B
:107AF00085C0853409F488C0803531F1823521F1A3
:107B0000813511F1853509F485C0863509F48DC0BC
:107B1000843609F496C0843709F403C1853709F423
:107B200072C1863709F466C0809103018F5F80932C
:107B30000301853079F6E0910401F0910501099582
:107B40000E94763C803351F60E94F33CC3CF0E94E2
:107B5000763C803249F78091C00085FFFCCFF092DF
:107B6000C6008091C00085FFFCCF9092C600809136
:107B7000C00085FFFCCF8092C6008091C00085FFC9
:107B8000FCCF7092C6008091C00085FFFCCF609250
:107B9000C6008091C00085FFFCCF5092C600809146
:107BA000C00085FFFCCF4092C6008091C00085FFD9
:107BB000FCCF3092C6008091C00085FFFCCFB09210
:107BC000C60088CF0E94763C863808F4BDCF0E945C
:107BD000763C0E94F33C7ECF0E94763C803809F4CC
:107BE0009CC0813809F40BC1823809F43CC1883942
:107BF00009F48FC080E00E94C73C6CCF84E10E94F2
:107C0000BD3C0E94F33C66CF85E00E94BD3C0E94D3
:107C1000F33C60CF0E94763C809306010E94763C44
:107C2000809307010E94F33C55CF0E94763C80333D
:107C300009F41DC183E00E94BD3C80E00E94C73C66
:107C400049CF0E94763C809309020E94763C809343
:107C5000080280910C028E7F80930C020E94763C79
:107C6000853409F415C18091080290910902892B8D
:107C700089F000E010E00E94763CF801E85FFE4FDA
:107C800080830F5F1F4F80910802909109020817AF
:107C9000190788F30E94763C803209F045CF809125
:107CA0000C0280FF01C16091060170910701660F0F
:107CB000771F7093070160930601A0910802B091AD
:107CC00009021097C9F0E8E0F1E09B01AD014E0F09
:107CD0005F1FF999FECF32BD21BD819180BDFA9A17
:107CE000F99A2F5F3F4FE417F50799F76A0F7B1F4B
:107CF00070930701609306018091C00085FFFCCF5F
:107D0000F092C6008091C00085FFFCCFB092C60003
:107D1000E1CE83E00E94C73CDDCE82E00E94C73CFA
:107D2000D9CE0E94763C809309020E94763C8093D3
:107D300008028091060190910701880F991F909386
:107D40000701809306010E94763C853409F4A6C0A1
:107D500080910C028E7F80930C020E94763C8032D0
:107D600009F0B8CE8091C00085FFFCCFF092C6002C
:107D7000609108027091090261157105B9F140E046
:107D800050E080910C02A82FA170B82FB27011C0E2
:107D9000BB2309F45CC0E0910601F0910701319624
:107DA000F0930701E09306014F5F5F4F46175707B7
:107DB000E8F4AA2369F3F999FECF209106013091E6
:107DC000070132BD21BDF89A90B58091C00085FFB2
:107DD000FCCF9093C6002F5F3F4F30930701209355
:107DE00006014F5F5F4F4617570718F38091C00099
:107DF00085FDE5CE8091C00085FFF8CFE0CE81E023
:107E00000E94C73C67CE0E94763C803209F08CCE3F
:107E10008091C00085FFFCCFF092C6008091C00029
:107E200085FFFCCFE092C6008091C00085FFFCCFAB
:107E3000D092C6008091C00085FFFCCFC092C600E2
:107E40008091C00085FFFCCFB092C60043CEE09188
:107E50000601F091070194918091C00085FFFCCF4D
:107E60009093C6009CCF80E10E94C73C33CE0E9415
:107E7000763C0E94763C182F0E94763C112309F430
:107E800083C0113009F484C08FE00E94C73C22CE29
:107E900080910C02816080930C02E5CE80910C02EF
:107EA000816080930C0259CF809107018823880F4D
:107EB000880B8A2180930B02809106019091070123
:107EC000880F991F90930701809306018091080203
:107ED00080FF09C080910802909109020196909359
:107EE000090280930802F894F999FECF1127E091D6
:107EF0000601F0910701C8E0D1E08091080290915D
:107F00000902103091F40091570001700130D9F34B
:107F100003E000935700E89500915700017001308D
:107F2000D9F301E100935700E89509901990009169
:107F3000570001700130D9F301E000935700E89534
:107F40001395103498F011270091570001700130FB
:107F5000D9F305E000935700E895009157000170B0
:107F60000130D9F301E100935700E895329602976A
:107F700009F0C7CF103011F00296E5CF112480919F
:107F8000C00085FFB9CEBCCE8EE10E94C73CA2CD19
:0E7F900085E90E94C73C9ECDF894FFCF80008B
:00000001FF
