:100000000C9462000C948A000C948A000C948A0070
:100010000C948A000C948A000C948A000C948A0038
:100020000C948A000C948A000C948A000C948A0028
:100030000C948A000C948A000C948A000C948A0018
:100040000C9448020C948A000C9416020C94F00153
:100050000C948A000C948A000C948A000C948A00F8
:100060000C948A000C948A000000000025002800EF
:100070002B0000000000240027002A0000000000E0
:1000800023002600290004040404040404040202DA
:100090000202020203030303030301020408102007
:1000A0004080010204081020010204081020000012
:1000B0000008000201000003040700000000000027
:1000C0000000060411241FBECFEFD8E0DEBFCDBF75
:1000D00011E0A0E0B1E0EAEBF8E002C005900D927B
:1000E000A631B107D9F721E0A6E1B1E001C01D9228
:1000F000A43CB207E1F710E0C2E6D0E004C02197CB
:10010000FE010E945504C136D107C9F70E94920230
:100110000C945B040C940000AF92BF92CF92DF92DC
:10012000EF92FF920F931F93CF93DF936C017B01AC
:100130008B01040F151FEB015E01AE18BF08C0173D
:10014000D10759F06991D601ED91FC910190F081B0
:10015000E02DC6010995892B79F7C501DF91CF9173
:100160001F910F91FF90EF90DF90CF90BF90AF90D5
:100170000895FC01538D448D252F30E0842F90E0AD
:10018000821B930B541710F0CF9608950197089592
:10019000FC01918D828D981761F0A28DAE0FBF2F5B
:1001A000B11D5D968C91928D9F5F9F73928F90E0B1
:1001B00008958FEF9FEF0895FC01918D828D981720
:1001C00031F0828DE80FF11D858D90E008958FEF5D
:1001D0009FEF0895FC01918D228D892F90E0805C26
:1001E0009F4F821B91098F739927089583E291E0B5
:1001F0000E94EA0021E0892B09F420E0822F089573
:1002000080E090E0892B29F00E94F60081110C9487
:1002100000000895FC01A48DA80FB92FB11DA35AA9
:10022000BF4F2C91848D90E001968F739927848F16
:10023000A689B7892C93A089B1898C918370806439
:100240008C93938D848D981306C00288F389E02DDA
:1002500080818F7D80830895EF92FF920F931F938B
:10026000CF93DF93EC0181E0888F9B8D8C8D981369
:100270001AC0E889F989808185FF15C09FB7F89475
:10028000EE89FF896083E889F989808183708064C1
:1002900080839FBF81E090E0DF91CF911F910F910C
:1002A000FF90EF900895F62E0B8D10E00F5F1F4F1B
:1002B0000F731127E02E8C8D8E110CC00FB607FC2A
:1002C000FACFE889F989808185FFF5CFCE010E94B8
:1002D0000A01F1CFEB8DEC0FFD2FF11DE35AFF4F1B
:1002E000F0829FB7F8940B8FEA89FB898081806246
:1002F000CFCFCF93DF93EC01888D8823B9F0AA8903
:10030000BB89E889F9898C9185FD03C0808186FDD0
:100310000DC00FB607FCF7CF8C9185FFF2CF80811F
:1003200085FFEDCFCE010E940A01E9CFDF91CF9189
:100330000895833081F028F4813099F08230A9F05B
:1003400008958730A9F08830C9F08430B1F48091E5
:1003500080008F7D03C0809180008F778093800024
:10036000089584B58F7784BD089584B58F7DFBCFC4
:100370008091B0008F778093B00008958091B00095
:100380008F7DF9CF1F93CF93DF93282F30E0F901B2
:10039000E255FF4F8491F901E656FF4FD491F901E0
:1003A000EA57FF4FC491CC23A9F0162F81110E9468
:1003B0009901EC2FF0E0EE0FFF1FE859FF4FA591D8
:1003C000B4918FB7F894EC91111108C0D095DE2349
:1003D000DC938FBFDF91CF911F910895DE2BF8CF73
:1003E0001F920F920FB60F9211242F933F934F93AA
:1003F0005F936F937F938F939F93AF93BF93EF938D
:10040000FF9383E291E00E940A01FF91EF91BF9177
:10041000AF919F918F917F916F915F914F913F919C
:100420002F910F900FBE0F901F9018951F920F9253
:100430000FB60F9211242F938F939F93EF93FF93F7
:10044000E0913301F09134018081E0913901F09124
:100450003A0182FD1BC0908180913C018F5F8F73B8
:1004600020913D01821741F0E0913C01F0E0ED5D0B
:10047000FE4F958F80933C01FF91EF919F918F915B
:100480002F910F900FBE0F901F9018958081F4CF81
:100490001F920F920FB60F9211242F933F938F93B9
:1004A0009F93AF93BF938091170190911801A091F2
:1004B0001901B0911A013091160123E0230F2D3755
:1004C00058F50196A11DB11D2093160180931701C7
:1004D00090931801A0931901B0931A0180911B0108
:1004E00090911C01A0911D01B0911E010196A11DCA
:1004F000B11D80931B0190931C01A0931D01B0932B
:100500001E01BF91AF919F918F913F912F910F90BD
:100510000FBE0F901F90189526E8230F0296A11D7D
:10052000B11DD2CFCF93DF93CDB7DEB7A1970FB672
:10053000F894DEBF0FBECDBF789484B5826084BDD1
:1005400084B5816084BD85B5826085BD85B58160D7
:1005500085BD80916E00816080936E001092810055
:100560008091810082608093810080918100816010
:1005700080938100809180008160809380008091D1
:10058000B10084608093B1008091B000816080935D
:10059000B00080917A00846080937A0080917A0024
:1005A000826080937A0080917A00816080937A00E3
:1005B00080917A00806880937A001092C100A1EA4D
:1005C000EA2EA0E0FA2EF7012491BDE8CB2EB0E090
:1005D000DB2EF60184918823C9F090E0880F991FE3
:1005E000FC01EE58FF4FA591B491FC01E859FF4F73
:1005F000459154919FB7F8943C91822F8095832325
:100600008C93FA018081282B20839FBFE2EAF0E0DF
:100610002491EEE8F0E08491882399F090E0880F2F
:10062000991FFC01EE58FF4FA591B491FC01E859C8
:10063000FF4F859194918FB7F894EC91E22BEC9356
:100640008FBFE0913301F091340182E08083E0912B
:100650002F01F09130011082E0913101F0913201CF
:100660008FEC808310923B01E0913701F0913801CB
:1006700086E08083E0913501F091360180818061D0
:100680008083E0913501F09136018081886080831C
:10069000E0913501F0913601808180688083E0919E
:1006A0003501F091360180818F7D80836AE0462E8E
:1006B000512C612C712C75EB272E70E0372E209178
:1006C000C0013091C1014091C2015091C30119A2F2
:1006D0008E010F5D1F4FCA01B901A30192010E9453
:1006E0003304605DF80162938F01211531054105E6
:1006F000510589F7309761F001900020E9F73197B3
:10070000AF01401B510BB80183E291E00E948C00C5
:1007100042E050E062E171E083E291E00E948C00EF
:10072000F1018491F7011491F60104910023F9F08D
:1007300081110E949901E02FF0E0EE0FFF1FE458B5
:10074000FF4FA591B4918C91182389F060E088E067
:100750000E94C20140E050E0452B09F4B0CF0E9456
:10076000F600882309F4ABCF0E940000A8CF3FB762
:10077000F89480911B0190911C01A0911D01B091F2
:100780001E0126B5A89B05C02F3F19F00196A11D9B
:10079000B11D3FBFBA2FA92F982F8827820F911D17
:1007A000A11DB11D4C015D0142E0880C991CAA1CE1
:1007B000BB1C4A95D1F78092C0019092C101A092D2
:1007C000C201B092C30180911F0190912001A091BC
:1007D0002101B0912201A5019401281B390B4A0B7C
:1007E0005B0BDA01C90181349B44AC44B10508F4C8
:1007F000B1CF61E088E00E94C20180921F01909217
:100800002001A0922101B0922201A4CFE3E2F1E005
:100810001382128288EE93E0A0E0B0E08483958397
:10082000A683B78384E091E09183808385EC90E098
:100830009587848784EC90E09787868780EC90E0AA
:10084000918B808B81EC90E0938B828B82EC90E09B
:10085000958B848B86EC90E0978B868B118E128E15
:10086000138E148E0895A1E21A2EAA1BBB1BFD0144
:100870000DC0AA1FBB1FEE1FFF1FA217B307E4077F
:10088000F50720F0A21BB30BE40BF50B661F771FD7
:10089000881F991F1A9469F76095709580959095B7
:1008A0009B01AC01BD01CF010895EE0FFF1F059024
:0A08B000F491E02D0994F894FFCFB5
:1008BA00000000002C018C00B9007901EA00C80090
:0608CA00DC000D0A000035
:00000001FF
