:100000000C945D000C9485000C9485000C94850084
:100010000C9485000C9485000C9485000C9485004C
:100020000C9485000C9485000C9485000C9485003C
:100030000C9485000C9485000C9485000C9485002C
:100040000C940F030C9485000C94DD020C94B70201
:100050000C9485000C9485000C9485000C9485000C
:100060000C9485000C94850000000008000201003B
:100070000003040700000000000000000000000072
:10008000250028002B0000000000240027002A0083
:10009000040404040404040402020202020203032E
:1000A0000303030301020408102040800102040836
:1000B0001020010204081020840511241FBECFEF78
:1000C000D8E0DEBFCDBF11E0A0E0B1E0E8E3FCE0A6
:1000D00002C005900D92A635B107D9F722E0A6E53A
:1000E000B1E001C01D92A130B207E1F710E0CDE50B
:1000F000D0E004C02197FE010E941406CC35D10740
:10010000C9F70E9459030C941A060C94000090E061
:10011000FC01EC55FF4F249180579F4FFC018491C7
:10012000882399F090E0880F991FFC01EA57FF4F50
:10013000A591B491FC01E458FF4F859194918FB73C
:10014000F894EC91E22BEC938FBF0895AF92BF929D
:10015000CF92DF92EF92FF920F931F93CF93DF9393
:100160006C017B018B01040F151FEB015E01AE18C2
:10017000BF08C017D10759F06991D601ED91FC91E4
:100180000190F081E02DC6010995892B79F7C50111
:10019000DF91CF911F910F91FF90EF90DF90CF9063
:1001A000BF90AF900895FC01538D448D252F30E012
:1001B000842F90E0821B930B541710F0CF96089574
:1001C00001970895FC01918D828D981761F0A28DA1
:1001D000AE0FBF2FB11D5D968C91928D9F5F9F7367
:1001E000928F90E008958FEF9FEF0895FC01918D1D
:1001F000828D981731F0828DE80FF11D858D90E08A
:1002000008958FEF9FEF0895FC01918D228D892F26
:1002100090E0805C9F4F821B91098F73992708950E
:1002200084E691E00E94040121E0892B09F420E09A
:10023000822F089580E090E0892B29F00E94100120
:1002400081110C9400000895FC01A48DA80FB92F12
:10025000B11DA35ABF4F2C91848D90E001968F73EE
:100260009927848FA689B7892C93A089B1898C910D
:10027000837080648C93938D848D981306C002885C
:10028000F389E02D80818F7D80830895EF92FF9226
:100290000F931F93CF93DF93EC0181E0888F9B8DA9
:1002A0008C8D98131AC0E889F989808185FF15C063
:1002B0009FB7F894EE89FF896083E889F989808186
:1002C0008370806480839FBF81E090E0DF91CF9155
:1002D0001F910F91FF90EF900895F62E0B8D10E077
:1002E0000F5F1F4F0F731127E02E8C8D8E110CC0E6
:1002F0000FB607FCFACFE889F989808185FFF5CF31
:10030000CE010E942401F1CFEB8DEC0FFD2FF11DEA
:10031000E35AFF4FF0829FB7F8940B8FEA89FB896D
:1003200080818062CFCFCF93DF93EC01888D8823CB
:10033000B9F0AA89BB89E889F9898C9185FD03C048
:10034000808186FD0DC00FB607FCF7CF8C9185FF2D
:10035000F2CF808185FFEDCFCE010E942401E9CF4D
:10036000DF91CF91089590E0FC01E859FF4F24916F
:10037000FC01EC55FF4F3491FC01E057FF4FE49135
:10038000EE23C9F0222339F0233001F1A8F4213003
:1003900019F1223029F1F0E0EE0FFF1FE458FF4F72
:1003A000A591B4918FB7F894EC91611126C0309566
:1003B0003E233C938FBF08952730A9F02830C9F021
:1003C000243049F7809180008F7D03C080918000A8
:1003D0008F7780938000DFCF84B58F7784BDDBCFAC
:1003E00084B58F7DFBCF8091B0008F778093B00074
:1003F000D2CF8091B0008F7DF9CF3E2BDACF3FB7BF
:10040000F89480915B0190915C01A0915D01B091A5
:100410005E0126B5A89B05C02F3F19F00196A11DCE
:10042000B11D3FBFBA2FA92F982F8827BC01CD013E
:10043000620F711D811D911D42E0660F771F881F9D
:10044000991F4A95D1F708958F929F92AF92BF92CC
:10045000CF92DF92EF92FF924B015C010E94FF016D
:100460006B017C010E94FF016C197D098E099F09B7
:10047000683E734081059105A8F321E0821A910836
:10048000A108B10888EEC80E83E0D81EE11CF11C5B
:1004900081149104A104B10429F7FF90EF90DF903B
:1004A000CF90BF90AF909F908F900895FC010190E6
:1004B0000020E9F73197AF01481B590BBC0184E6D6
:1004C00091E00C94A6008F929F92AF92BF920F93EF
:1004D0001F93CF93DF93CDB7DEB7A1970FB6F894F4
:1004E000DEBF0FBECDBF19A2423008F44AE08E0134
:1004F0000F5D1F4F842E912CB12CA12CA5019401CE
:100500000E94E305E62FB901CA01EA30F4F4E05D88
:10051000D801EE938D01232B242B252B79F790E026
:1005200080E0109719F0CD010E945602A1960FB6F7
:10053000F894DEBF0FBECDBFDF91CF911F910F9119
:10054000BF90AF909F908F900895E95CE1CFCF93DB
:10055000DF9382E191E00E945602EC0185E191E097
:100560000E9456028C0F9D1FDF91CF9108951F921C
:100570000F920FB60F9211242F933F934F935F93D7
:100580006F937F938F939F93AF93BF93EF93FF935B
:1005900084E691E00E942401FF91EF91BF91AF9119
:1005A0009F918F917F916F915F914F913F912F918B
:1005B0000F900FBE0F901F9018951F920F920FB6BD
:1005C0000F9211242F938F939F93EF93FF93E091BA
:1005D0007401F09175018081E0917A01F0917B01C5
:1005E00082FD1BC0908180917D018F5F8F73209170
:1005F0007E01821741F0E0917D01F0E0EC59FE4F61
:10060000958F80937D01FF91EF919F918F912F9115
:100610000F900FBE0F901F9018958081F4CF1F92FE
:100620000F920FB60F9211242F933F938F939F93A6
:10063000AF93BF938091570190915801A0915901B8
:10064000B0915A013091560123E0230F2D3758F510
:100650000196A11DB11D20935601809357019093DF
:100660005801A0935901B0935A0180915B01909178
:100670005C01A0915D01B0915E010196A11DB11DCB
:1006800080935B0190935C01A0935D01B0935E0148
:10069000BF91AF919F918F913F912F910F900FBE7E
:1006A0000F901F90189526E8230F0296A11DB11DEB
:1006B000D2CF789484B5826084BD84B5816084BDD6
:1006C00085B5826085BD85B5816085BD80916E00F0
:1006D000816080936E001092810080918100826021
:1006E000809381008091810081608093810080915E
:1006F00080008160809380008091B100846080934D
:10070000B1008091B00081608093B00080917A0048
:10071000846080937A0080917A00826080937A006E
:1007200080917A00816080937A0080917A0080685D
:1007300080937A001092C10086E00E94870088E0D2
:100740000E94870089E00E94870085E00E94870060
:10075000E0917401F091750182E08083E091700175
:10076000F09171011082E0917201F09173018FECB0
:10077000808310927C01E0917801F091790186E00C
:100780008083E0917601F0917701808180618083A0
:10079000E0917601F0917701808188608083E0911B
:1007A0007601F0917701808180688083E091760105
:1007B000F091770180818F7D808316E482EC882E12
:1007C00099249394A12CB12C9AE6492E55245A943D
:1007D000652C752CC0E0D0E010937C0080917A00ED
:1007E000806480937A0080917A0086FDFCCF8091AE
:1007F0007800E0907900FE2CE82EF0926301E09200
:1008000062019701A6E9B0E00E940506A5019401E6
:100810000E94B1052E5C3F4F4F4F5F4F2093610107
:10082000970150E040E02D53324041095109AAE6BA
:10083000BFEF0E94DE05A50194010E94B105285377
:100840003F4F4F4F5F4F2093600122ECE21A21E0AF
:10085000F20A8CE7E816F104A0F560E086E00E9459
:10086000B30160E088E00E94B30160E089E00E948B
:10087000B30160E085E00E94B30168EC70E080E0C5
:1008800090E00E94240268EC70E080E090E00E941A
:10089000240268EC70E080E090E00E94240268ECA2
:1008A00070E080E090E00E94240288E191E00E94E4
:1008B00056024AE060E070E0CB010E9463020E94B1
:1008C000A7028091620190916301823C914008F0FF
:1008D00085C000916101093C08F40CC108EC60E09E
:1008E00086E00E94B30160E088E00E94B30160E00E
:1008F00089E00E94B30161E085E00E94B301C02E4F
:10090000D12CF12CE12CC701B6010E94240261E038
:1009100086E00E94B30160E088E00E94B30160E0DD
:1009200089E00E94B30160E085E00E94B301C70145
:10093000B6010E94240260E086E00E94B30160E0FC
:1009400088E00E94B30161E089E00E94B30160E0A9
:1009500085E00E94B301C701B6010E94240260E055
:1009600086E00E94B30161E088E00E94B30160E08C
:1009700089E00E94B30160E085E00E94B301C701F5
:10098000B6010E94240288E291E00E945602209162
:10099000610130E050E040E0225331094109510942
:1009A000ACE9BFEF0E94DE0526E930E040E050E010
:1009B0000E94B1052C593F4F4F4F5F4F20935F016D
:1009C0008EE391E00E94560260915F0170E090E03A
:1009D00080E04AE00E9463020E94A70280916201C7
:1009E000909163018E33924008F479C000916001C8
:1009F000093C08F484C008EC60E086E00E94B30182
:100A000061E088E00E94B30160E089E00E94B301E8
:100A100060E085E00E94B301C02ED12CF12CE12CC6
:100A2000C701B6010E94240260E086E00E94B30183
:100A300060E088E00E94B30161E089E00E94B301B8
:100A400060E085E00E94B301C701B6010E94240264
:100A500061E086E00E94B30160E088E00E94B3019B
:100A600060E089E00E94B30160E085E00E94B3018C
:100A7000C701B6010E94240260E086E00E94B30133
:100A800060E088E00E94B30160E089E00E94B30169
:100A900061E085E00E94B301C701B6010E94240213
:100AA00080E491E00E9456022091600130E050E025
:100AB00040E0285C310941095109A4E6B0E00E94F8
:100AC000D005A30192010E94B105CA01B90177279F
:100AD000882799274AE00E9463020E94A702209774
:100AE00009F47ACE0E941001882309F475CE0E9481
:100AF000000072CE023308F0F2CE02E3F0CE0233F1
:100B000008F07ACF02E378CFE4E6F1E013821282B4
:100B100088EE93E0A0E0B0E084839583A683B7835A
:100B200084E091E09183808385EC90E095878487D1
:100B300084EC90E09787868780EC90E0918B808BA7
:100B400081EC90E0938B828B82EC90E0958B848B90
:100B500086EC90E0978B868B118E128E138E148EFE
:100B60000895052E97FB1EF400940E94C80557FDBA
:100B700007D00E94E30507FC03D04EF40C94C8058F
:100B800050954095309521953F4F4F4F5F4F0895B9
:100B900090958095709561957F4F8F4F9F4F0895E9
:100BA0000E940506A59F900DB49F900DA49F800DF7
:100BB000911D11240895B7FF0C94D0050E94D00513
:100BC000821B930B0895A1E21A2EAA1BBB1BFD01E9
:100BD0000DC0AA1FBB1FEE1FFF1FA217B307E4071C
:100BE000F50720F0A21BB30BE40BF50B661F771F74
:100BF000881F991F1A9469F7609570958095909554
:100C00009B01AC01BD01CF010895A29FB001B39F2C
:100C1000C001A39F700D811D1124911DB29F700D05
:100C2000811D1124911D0895EE0FFF1F0590F49171
:080C3000E02D0994F894FFCFB8
:100C3800000000004601A600D30093010401E20071
:100C4800F6002025000D0A0073746F70202D2074A3
:100C58006F6320646F3A200071756179206E677543
:100C68006F63202D20746F6320646F3A20002D007D
:100C78007175617920746875616E202D20746F63B9
:060C880020646F3A200019
:00000001FF
