:100000000C9458000C9480000C9480000C94800098
:100010000C9480000C9480000C9480000C94800060
:100020000C9480000C9480000C9480000C94800050
:100030000C9480000C9480000C9480000C94800040
:100040000C94CA030C9480000C9480000C948000E3
:100050000C9480000C9480000C9480000C94800020
:100060000C9414040C94800000000000250028006B
:100070002B00040404040404040402020202020229
:10008000030303030303010204081020408001025C
:1000900004081020010204081020000000080002DB
:1000A0000100000304070000000000000000330509
:1000B00011241FBECFEFD8E0DEBFCDBF11E0A0E01E
:1000C000B1E0E4EEFCE002C005900D92A433B1076C
:1000D000D9F722E0A4E3B1E001C01D92A031B2073C
:1000E000E1F710E0C8E5D0E004C02197FE010E94CE
:1000F0006A06C735D107C9F70E9453050C947006EC
:100100000C94000008950895AF92BF92CF92DF92B1
:10011000EF92FF920F931F93CF93DF936C017B01BC
:100120008B01040F151FEB015E01AE18BF08C0174D
:10013000D10759F06991D601ED91FC910190F081C0
:10014000E02DC6010995892B79F7C501DF91CF9183
:100150001F910F91FF90EF90DF90CF90BF90AF90E5
:10016000089590E0FC01E656FF4F2491FC01EA5708
:10017000FF4F3491FC01EE58FF4FE491EE23C9F09C
:10018000222339F0233001F1A8F4213019F1223073
:1001900029F1F0E0EE0FFF1FE859FF4FA591B49150
:1001A0008FB7F894EC91611126C030953E233C93B3
:1001B0008FBF08952730A9F02830C9F0243049F7BF
:1001C000809180008F7D03C0809180008F77809325
:1001D0008000DFCF84B58F7784BDDBCF84B58F7D82
:1001E000FBCF8091B0008F778093B000D2CF809109
:1001F000B0008F7DF9CF3E2BDACF3FB7F8948091D6
:10020000EB019091EC01A091ED01B091EE0126B5CA
:10021000A89B05C02F3F19F00196A11DB11D3FBF3E
:10022000BA2FA92F982F8827BC01CD01620F711D0D
:10023000811D911D42E0660F771F881F991F4A9507
:10024000D1F708958F929F92AF92BF92CF92DF9293
:10025000EF92FF924B015C010E94FD006B017C015B
:100260000E94FD006C197D098E099F09683E73404C
:1002700081059105A8F321E0821A9108A108B1082F
:1002800088EEC80E83E0D81EE11CF11C8114910495
:10029000A104B10429F7FF90EF90DF90CF90BF90B9
:1002A000AF909F908F900895089520917501260F2B
:1002B0003327331F21323105ECF42091BE01FC01BC
:1002C00090E080E0243069F082E00895A09175010B
:1002D0002191AC014B5A5E4FA40FB52FB11D2C9349
:1002E0000196861798F380917501680F60937501E8
:1002F00080E0089581E008951092BE0181E080932E
:10030000BD011092980161E082E10E94B10061E0BC
:1003100083E10E94B100E9EBF0E080818E7F808371
:1003200080818D7F808388E48093B80085E480930A
:10033000BC000895CF93DF9391E0909354018823FC
:10034000B9F0C091B800D091BA008091BC008A7B0E
:100350008093BC0060E082E10E94B10060E083E134
:100360000E94B1000E947C01D093BA00C093B800F3
:10037000DF91CF9108950895E091F6018091F50104
:10038000E81730F4F0E0EC5CFE4F808190E00895D7
:100390008FEF9FEF08959091F6018091F5012FEF77
:1003A0003FEF981748F4E92FF0E0EC5CFE4F208116
:1003B00030E09F5F9093F601C90108958091F501A7
:1003C0009091F601891B990B0895CF92DF92EF92DD
:1003D000FF920F931F93CF93DF937C01CB018A0190
:1003E0002091C401222389F0EB016B01C40ED51EBC
:1003F000CC15DD0569F06991D701ED91FC91019073
:10040000F081E02DC7010995F3CF642F0E945501BB
:10041000C801DF91CF911F910F91FF90EF90DF9076
:10042000CF900895CF93DF931F92CDB7DEB7698346
:100430002091C4012223F9F02091F301203258F0D9
:1004400021E030E0FC013383228390E080E00F90D4
:10045000DF91CF9108958091F401E82FF0E0EB5304
:10046000FE4F998190838F5F8093F4018093F30115
:1004700081E090E0ECCF61E0CE0101960E94550151
:10048000F7CFCF92DF92EF92FF920F931F93CF930C
:10049000DF93FC01C48121E02093C401C093E501F6
:1004A0001092F4011092F3018385682B88EF91E09C
:1004B0000E941202D091F301D13208F092C00E9442
:1004C000FD006B017C018091BE01811165C082E05D
:1004D0008093BE0181E08093BD018FEF8093BC01CA
:1004E0001092BB01D093BA01A5ECB1E0EAE9F1E0CA
:1004F00080E0D81385C01092990180919901CC0FAA
:10050000C82BC093990180919801813009F07CC07B
:10051000109298010E94FD006B017C01809199016D
:100520008093BB008091C0019091C101A091C20154
:10053000B091C301892B8A2B8B2B99F00E94FD006F
:100540000091C0011091C1012091C2013091C301FD
:100550006C197D098E099F090617170728073907A7
:10056000E0F18091BC0083FDD9CF85EC8093BC0085
:100570000E94FD006B017C018091BE01823009F474
:1005800045C08091BC018F3F61F18091BC018032F8
:1005900041F18091BC0125C08091C0019091C101C1
:1005A000A091C201B091C301892B8A2B8B2B09F436
:1005B0008ACF0E94FD000091C0011091C1012091DD
:1005C000C2013091C3016C197D098E099F0906177C
:1005D00017072807390708F076CF8091BF010E94DE
:1005E0009A011092F4011092F3011092C401DF916C
:1005F000CF911F910F91FF90EF90DF90CF900895D2
:100600009D9191938F5F75CF85EEB0CF8091C001A2
:100610009091C101A091C201B091C301892B8A2B95
:100620008B2B09F4A9CF0E94FD000091C00110910D
:10063000C1012091C2013091C3016C197D098E095D
:100640009F09061717072807390708F095CFC5CF68
:1006500090E080E008950F931F93CF938C01C62FF5
:100660000E9441026C2F6460C8010E9441026C2FFD
:100670006B7FC8010E94410283EC90E00197F1F783
:10068000CF911F910F9108950F931F93CF93DF93F5
:100690008C01D62FC42F607F642B0E942B0380E136
:1006A000D89FB00111246C2BC801DF91CF911F910D
:1006B0000F910C942B03CF93DF93CDB7DEB7289720
:1006C0000FB6F894DEBF0FBECDBF98E0E0E0F1E0DA
:1006D000DE01119601900D929A95E1F790910C022E
:1006E000981708F48FEF90E0880F991F21E030E011
:1006F0002C0F3D1F820F931FFC016081606840E05A
:1007000084E092E028960FB6F894DEBF0FBECDBF0E
:10071000DF91CF910C94440341E00E94440381E0B7
:1007200090E0089585ED8093BC008091C001909188
:10073000C101A091C201B091C3010796A11DB11DD5
:1007400023E0B695A795979587952A95D1F720919F
:10075000BC0024FD03C01092BE0108954091C00169
:100760005091C1016091C2017091C301452B462B8C
:10077000472B69F30097A105B10541F025E32A95C0
:10078000F1F700000197A109B109E1CF8091BF0104
:100790000C949A011F920F920FB60F9211242F936F
:1007A0003F938F939F93AF93BF938091E701909175
:1007B000E801A091E901B091EA013091E60123E05E
:1007C000230F2D3758F50196A11DB11D2093E60189
:1007D0008093E7019093E801A093E901B093EA01C7
:1007E0008091EB019091EC01A091ED01B091EE01AF
:1007F0000196A11DB11D8093EB019093EC01A09394
:10080000ED01B093EE01BF91AF919F918F913F9118
:100810002F910F900FBE0F901F90189526E8230F71
:100820000296A11DB11DD2CF1F920F920FB60F924B
:1008300011242F933F934F935F936F937F938F93E5
:100840009F93AF93BF93EF93FF938091B900887FFD
:10085000803609F44AC0F0F5883209F4A7C018F5CB
:10086000803109F49BC0B8F4882309F4F9C08830BA
:1008700009F494C0FF91EF91BF91AF919F918F9137
:100880007F916F915F914F913F912F910F900FBE8C
:100890000F901F901895883109F488C0803251F765
:1008A0008093BC0114C0803409F49DC040F48033AF
:1008B000B9F38833F9F68093BC0185ECB0C080357C
:1008C00009F485C0883509F496C0883499F60E94E9
:1008D0009203D0CF883909F48CC038F5883729F0D5
:1008E00050F4883611F0803729F683E08093BE01FA
:1008F0001092970157C0883809F47BC0803919F0ED
:10090000803809F0B7CF80919701803208F071C02C
:10091000E091970181E08E0F809397018091BB0059
:10092000F0E0E958FE4F80833DC0803B39F0E0F4B1
:10093000803A09F479C0883A09F09CCF84E080932A
:10094000BE011092760110927501E091F101F091D3
:10095000F20109958091750181110FC081E08093AA
:1009600075011092550109C0803C09F4A6CF883C5E
:1009700009F4A3CF883B09F07DCFE091760181E0B7
:100980008E0F80937601F0E0EB5AFE4F80818093CA
:10099000BB00909176018091750129C080919901E9
:1009A0008093BB0085EC8093BC0064CF9091BB0129
:1009B0008091BA01981758F5E091BB0181E08E0F44
:1009C0008093BB01F0E0E656FE4F8081E9CFE091D5
:1009D000BB0181E08E0F8093BB018091BB00F0E0F2
:1009E000E656FE4F80839091BB018091BA01981723
:1009F000C8F285E8D8CFE091BB0181E08E0F8093EB
:100A0000BB018091BB00F0E0E656FE4F80838091F1
:100A1000BD0181115CCF81E08093980184EA8093CD
:100A2000BC001092BE0126CF85EC8093BC001092D2
:100A3000BE0180919701803230F4E0919701F0E09F
:100A4000E958FE4F10826091970170E0E091EF014C
:100A5000F091F00187E791E00995109297010ACF94
:100A60001092BC0134CFE8EFF1E01382128288EEDD
:100A700093E0A0E0B0E084839583A683B7838CE005
:100A800091E091838083E4E0F2E0138212828EE1B0
:100A900091E09183808387E2848380E1818782E093
:100AA000828713860895789484B5826084BD84B566
:100AB000816084BD85B5826085BD85B5816085BD59
:100AC00080916E00816080936E0010928100809111
:100AD0008100826080938100809181008160809399
:100AE0008100809180008160809380008091B100BE
:100AF00084608093B1008091B00081608093B000E9
:100B000080917A00846080937A0080917A0082607C
:100B100080937A0080917A00816080937A0080913E
:100B20007A00806880937A001092C1001092F601DA
:100B30001092F5011092F4011092F3010E947C01D1
:100B400082E890E09093F2018093F10183E890E0D5
:100B50009093F0018093EF011092090280910E02B0
:100B6000823018F098E09093090280930C0262E3BF
:100B700070E080E090E00E94220160910F0284E02A
:100B800092E00E94410268EE73E080E090E00E94F3
:100B9000220160E384E092E00E942B03CBE4D6E4E0
:100BA000CE010197F1F760E384E092E00E942B030D
:100BB0002197F1F760E384E092E00E942B0383E544
:100BC00092E00197F1F760E284E092E00E942B034B
:100BD00060910902606240E084E092E00E94440378
:100BE00084E080930A0240E06CE084E092E00E949E
:100BF000440340E061E084E092E00E944403CBE3E0
:100C0000DFE1CE010197F1F782E080930B0240E033
:100C100066E084E092E00E94440340E062E084E009
:100C200092E00E9444032197F1F788E080930F023D
:100C300060E084E092E00E94410280E00E945B0359
:100C40004DE050E066E271E084E092E00E948400B2
:100C500084E6F82EDAE000E010E0C091F701CF5F03
:100C6000C093F70181E00E945B038C2F6F2D0E94DF
:100C70005E0660E3680F84E092E00E948C038C2F94
:100C80006D2F0E945E06C92F0E945E0660E3690F09
:100C900084E092E00E948C0360E36C0F84E092E0B9
:100CA0000E948C0364E670E080E090E00E942201E4
:100CB0000115110591F20E940000CFCF991B79E038
:100CC00004C0991F961708F0961B881F7A95C9F7DC
:100CD00080950895EE0FFF1F0590F491E02D099483
:040CE000F894FFCFB6
:100CE4000000400014005400000000001202E5015E
:100CF4002803BB01DE01CB01BC01000000008C0312
:100D040084002803540148656C6C6F2C20776F7243
:040D14006C642100EA
:00000001FF
