:100000000C9435000C945D000C945D000C945D0024
:100010000C945D000C945D000C945D000C945D00EC
:100020000C945D000C945D000C945D000C945D00DC
:100030000C945D000C945D000C945D000C945D00CC
:100040000C944C020C945D000C941A020C94F40174
:100050000C945D000C945D000C945D000C945D00AC
:100060000C945D000C945D006E0311241FBECFEF55
:10007000D8E0DEBFCDBF11E0A0E0B1E0EAE8F7E0F4
:1000800002C005900D92AC31B107D9F721E0ACE187
:10009000B1E001C01D92A63CB207E1F710E0C5E354
:1000A000D0E004C02197FE010E94BD03C433D107F4
:1000B000C9F70E9496020C94C3030C940000AF92FF
:1000C000BF92CF92DF92EF92FF920F931F93CF9345
:1000D000DF936C017B018B01040F151FEB015E01A7
:1000E000AE18BF08C017D10759F06991D601ED913C
:1000F000FC910190F081E02DC6010995892B79F7DB
:10010000C501DF91CF911F910F91FF90EF90DF908C
:10011000CF90BF90AF900895FC01538D448D252F53
:1001200030E0842F90E0821B930B541710F0CF9691
:10013000089501970895FC01918D828D981761F0C3
:10014000A28DAE0FBF2FB11D5D968C91928D9F5FDA
:100150009F73928F90E008958FEF9FEF0895FC01B9
:10016000918D828D981731F0828DE80FF11D858D6C
:1001700090E008958FEF9FEF0895FC01918D228DFF
:10018000892F90E0805C9F4F821B91098F73992784
:10019000089589E291E00E94BD0021E0892B09F4D5
:1001A00020E0822F089580E090E0892B29F00E94C2
:1001B000C90081110C9400000895FC01A48DA80FC2
:1001C000B92FB11DA35ABF4F2C91848D90E0019699
:1001D0008F739927848FA689B7892C93A089B189B9
:1001E0008C91837080648C93938D848D981306C05A
:1001F0000288F389E02D80818F7D80830895EF92BE
:10020000FF920F931F93CF93DF93EC0181E0888FD0
:100210009B8D8C8D98131AC0E889F989808185FFA0
:1002200015C09FB7F894EE89FF896083E889F98942
:1002300080818370806480839FBF81E090E0DF9144
:10024000CF911F910F91FF90EF900895F62E0B8D97
:1002500010E00F5F1F4F0F731127E02E8C8D8E1152
:100260000CC00FB607FCFACFE889F989808185FFB9
:10027000F5CFCE010E94DD00F1CFEB8DEC0FFD2F0D
:10028000F11DE35AFF4FF0829FB7F8940B8FEA8974
:10029000FB8980818062CFCFCF93DF93EC01888D83
:1002A0008823B9F0AA89BB89E889F9898C9185FDF1
:1002B00003C0808186FD0DC00FB607FCF7CF8C917F
:1002C00085FFF2CF808185FFEDCFCE010E94DD005A
:1002D000E9CFDF91CF9108958E50806480937C00A8
:1002E00080917A00806480937A0080917A0086FD04
:1002F000FCCF809178009091790008953FB7F894F1
:100300008091210190912201A0912301B0912401BB
:1003100026B5A89B05C02F3F19F00196A11DB11D60
:100320003FBFBA2FA92F982F8827BC01CD01620F9C
:10033000711D811D911D42E0660F771F881F991F57
:100340004A95D1F70895FC0101900020E9F7319713
:10035000AF01481B590BBC0189E291E00C945F008E
:100360008F929F92AF92BF920F931F93CF93DF9381
:10037000CDB7DEB7A1970FB6F894DEBF0FBECDBFE5
:1003800019A2423008F44AE08E010F5D1F4F842EFF
:10039000912CB12CA12CA50194010E949B03E62F66
:1003A000B901CA01EA30F4F4E05DD801EE938D01A1
:1003B000232B242B252B79F790E080E0109719F060
:1003C000CD010E94A301A1960FB6F894DEBF0FBE27
:1003D000CDBFDF91CF911F910F91BF90AF909F90B4
:1003E0008F900895E95CE1CF1F920F920FB60F92A4
:1003F00011242F933F934F935F936F937F938F932A
:100400009F93AF93BF93EF93FF9389E291E00E9494
:10041000DD00FF91EF91BF91AF919F918F917F91FF
:100420006F915F914F913F912F910F900FBE0F9061
:100430001F9018951F920F920FB60F9211242F93B1
:100440008F939F93EF93FF93E0913901F0913A01DD
:100450008081E0913F01F091400182FD1BC09081BD
:10046000809142018F5F8F7320914301821741F089
:10047000E0914201F0E0E75DFE4F958F80934201ED
:10048000FF91EF919F918F912F910F900FBE0F9041
:100490001F9018958081F4CF1F920F920FB60F9284
:1004A00011242F933F938F939F93AF93BF9380918A
:1004B0001D0190911E01A0911F01B091200130916A
:1004C0001C0123E0230F2D3758F50196A11DB11D06
:1004D00020931C0180931D0190931E01A0931F0186
:1004E000B09320018091210190912201A0912301DC
:1004F000B09124010196A11DB11D8093210190931B
:100500002201A0932301B0932401BF91AF919F9149
:100510008F913F912F910F900FBE0F901F901895C4
:1005200026E8230F0296A11DB11DD2CF789484B581
:10053000826084BD84B5816084BD85B5826085BDDF
:1005400085B5816085BD80916E00816080936E006D
:10055000109281008091810082608093810080915F
:100560008100816080938100809180008160809310
:1005700080008091B10084608093B1008091B000D0
:1005800081608093B00080917A00846080937A00CB
:1005900080917A00826080937A0080917A008160F5
:1005A00080937A0080917A00806880937A0010921C
:1005B000C100E0913901F0913A0182E08083E0913D
:1005C0003501F09136011082E0913701F091380148
:1005D0008FEC808310924101E0913D01F0913E014A
:1005E00086E08083E0913B01F0913C018081806155
:1005F0008083E0913B01F0913C01808188608083A1
:10060000E0913B01F0913C01808180688083E09122
:100610003B01F0913C0180818F7D808382E191E0FC
:100620000E94A30187E191E00E94A30100E010E095
:1006300084E10E946C01EC019093280180932701D2
:1006400085E10E946C019093260180932501BE01F3
:1006500090E080E04AE00E94B0018AE191E00E94CF
:10066000A301609125017091260190E080E04AE0AD
:100670000E94B00187E191E00E94A3010E947E01E7
:100680004B015C0188ECC82ED12CE12CF12C0E948E
:100690007E01681979098A099B09683E73408105C2
:1006A0009105A8F321E0C21AD108E108F10888EE0B
:1006B000880E83E0981EA11CB11CC114D104E10472
:1006C000F10429F70115110509F4B2CF0E94C90000
:1006D000882309F4ADCF0E940000AACFE9E2F1E03F
:1006E0001382128288EE93E0A0E0B0E084839583C9
:1006F000A683B78384E091E09183808385EC90E0CA
:100700009587848784EC90E09787868780EC90E0DB
:10071000918B808B81EC90E0938B828B82EC90E0CC
:10072000958B848B86EC90E0978B868B118E128E46
:10073000138E148E0895A1E21A2EAA1BBB1BFD0175
:100740000DC0AA1FBB1FEE1FFF1FA217B307E407B0
:10075000F50720F0A21BB30BE40BF50B661F771F08
:10076000881F991F1A9469F76095709580959095E8
:100770009B01AC01BD01CF010895EE0FFF1F059055
:0A078000F491E02D0994F894FFCFE6
:10078A0000000000FF005F008C004C01BD009B00D0
:0C079A00AF0074657374000D0A002000AD
:00000001FF
