:100000000C945D000C9485000C9485000C94850084
:100010000C9485000C9485000C9485000C9485004C
:100020000C9485000C9485000C9485000C9485003C
:100030000C9485000C9485000C9485000C9485002C
:100040000C94D6020C9485000C94A4020C947E02AD
:100050000C9485000C9485000C9485000C9485000C
:100060000C9485000C94850000000008000201003B
:100070000003040700000000000000000000000072
:10008000250028002B0000000000240027002A0083
:10009000040404040404040402020202020203032E
:1000A0000303030301020408102040800102040836
:1000B0001020010204081020770411241FBECFEF86
:1000C000D8E0DEBFCDBF11E0A0E0B1E0ECE9F9E09F
:1000D00002C005900D92AA31B107D9F721E0AAE13B
:1000E000B1E001C01D92A43CB207E1F710E0CDE5FC
:1000F000D0E004C02197FE010E94C604CC35D10790
:10010000C9F70E9420030C94CC040C940000E9EA87
:10011000F0E02491E5E9F0E08491882399F090E003
:10012000880F991FFC01EA57FF4FA591B491FC017C
:10013000E458FF4F859194918FB7F894EC91E22B9E
:10014000EC938FBF0895EDE6F0E02491E9EAF0E04A
:100150009491E5E9F0E0E491EE23C9F0222339F02F
:10016000233001F1A8F4213019F1223029F1F0E017
:10017000EE0FFF1FE458FF4FA591B4912FB7F894ED
:10018000EC91811126C090959E239C932FBF0895DA
:100190002730A9F02830C9F0243049F72091800099
:1001A0002F7D03C0209180002F7720938000DFCF28
:1001B00024B52F7724BDDBCF24B52F7DFBCF209135
:1001C000B0002F772093B000D2CF2091B0002F7DC8
:1001D000F9CF9E2BDACFAF92BF92CF92DF92EF9200
:1001E000FF920F931F93CF93DF936C017B018B01E1
:1001F000040F151FEB015E01AE18BF08C017D10731
:1002000059F06991D601ED91FC910190F081E02DBA
:10021000C6010995892B79F7C501DF91CF911F910F
:100220000F91FF90EF90DF90CF90BF90AF90089527
:10023000FC01538D448D252F30E0842F90E0821BEC
:10024000930B541710F0CF96089501970895FC0171
:10025000918D828D981761F0A28DAE0FBF2FB11DC9
:100260005D968C91928D9F5F9F73928F90E0089521
:100270008FEF9FEF0895FC01918D828D981731F0DB
:10028000828DE80FF11D858D90E008958FEF9FEF2F
:100290000895FC01918D228D892F90E0805C9F4F05
:1002A000821B91098F739927089587E291E00E943C
:1002B000490121E0892B09F420E0822F089580E094
:1002C00090E0892B29F00E94550181110C940000C7
:1002D0000895FC01A48DA80FB92FB11DA35ABF4FDB
:1002E0002C91848D90E001968F739927848FA68935
:1002F000B7892C93A089B1898C91837080648C9389
:10030000938D848D981306C00288F389E02D808137
:100310008F7D80830895EF92FF920F931F93CF9369
:10032000DF93EC0181E0888F9B8D8C8D98131AC030
:10033000E889F989808185FF15C09FB7F894EE8917
:10034000FF896083E889F989808183708064808374
:100350009FBF81E090E0DF91CF911F910F91FF90BF
:10036000EF900895F62E0B8D10E00F5F1F4F0F7367
:100370001127E02E8C8D8E110CC00FB607FCFACF22
:10038000E889F989808185FFF5CFCE010E94690156
:10039000F1CFEB8DEC0FFD2FF11DE35AFF4FF082F3
:1003A0009FB7F8940B8FEA89FB8980818062CFCF59
:1003B000CF93DF93EC01888D8823B9F0AA89BB899C
:1003C000E889F9898C9185FD03C0808186FD0DC087
:1003D0000FB607FCF7CF8C9185FFF2CF808185FFA8
:1003E000EDCFCE010E946901E9CFDF91CF91089551
:1003F0003FB7F89480911F0190912001A0912101B5
:10040000B091220126B5A89B05C02F3F19F0019697
:10041000A11DB11D3FBFBA2FA92F982F8827BC015E
:10042000CD01620F711D811D911D42E0660F771F86
:10043000881F991F4A95D1F708958F929F92AF9286
:10044000BF920F931F93CF93DF93CDB7DEB7A197E2
:100450000FB6F894DEBF0FBECDBF19A2423008F42C
:100460004AE08E010F5D1F4F842E912CB12CA12CE0
:10047000A50194010E94A404E62FB901CA01EA3043
:1004800044F5E05DD801EE938D01232B242B252B21
:1004900079F790E080E0109769F0FD01019000206D
:1004A000E9F73197AF014A1B5B0BBD0187E291E091
:1004B0000E94EB00A1960FB6F894DEBF0FBECDBF31
:1004C000DF91CF911F910F91BF90AF909F908F9030
:1004D0000895E95CD7CFFC0101900020E9F731973E
:1004E000AF01481B590BBC0187E291E00C94EB0073
:1004F000BC0190E080E04AE00C941D021F920F9234
:100500000FB60F9211242F933F934F935F936F93E6
:100510007F938F939F93AF93BF93EF93FF9387E264
:1005200091E00E946901FF91EF91BF91AF919F917E
:100530008F917F916F915F914F913F912F910F908C
:100540000FBE0F901F9018951F920F920FB60F922B
:1005500011242F938F939F93EF93FF93E091370193
:10056000F09138018081E0913D01F0913E0182FDE2
:100570001BC09081809140018F5F8F73209141015A
:10058000821741F0E0914001F0E0E95DFE4F958F68
:1005900080934001FF91EF919F918F912F910F9048
:1005A0000FBE0F901F9018958081F4CF1F920F926D
:1005B0000FB60F9211242F933F938F939F93AF9376
:1005C000BF9380911B0190911C01A0911D01B091DE
:1005D0001E0130911A0123E0230F2D3758F50196A3
:1005E000A11DB11D20931A0180931B0190931C0142
:1005F000A0931D01B0931E0180911F0190912001D5
:10060000A0912101B09122010196A11DB11D8093FD
:100610001F0190932001A0932101B0932201BF916B
:10062000AF919F918F913F912F910F900FBE0F909F
:100630001F90189526E8230F0296A11DB11DD2CF59
:10064000789484B5826084BD84B5816084BD85B5AD
:10065000826085BD85B5816085BD80916E008160B9
:1006600080936E001092810080918100826080935F
:100670008100809181008160809381008091800061
:100680008160809380008091B10084608093B1008C
:100690008091B00081608093B00080917A00846086
:1006A00080937A0080917A00826080937A008091B2
:1006B0007A00816080937A0080917A0080688093CC
:1006C0007A001092C1000E948700E0913701F091FA
:1006D000380182E08083E0913301F091340110828F
:1006E000E0913501F09136018FEC808310923F014B
:1006F000E0913B01F0913C0186E08083E09139017B
:10070000F0913A01808180618083E0913901F0911C
:100710003A01808188608083E0913901F0913A014B
:10072000808180688083E0913901F0913A01808175
:100730008F7D808396E4C92E2DE6E22E20E0F22EF6
:1007400000E010E0C0927C0080917A008064809389
:100750007A0080917A0086FDFCCF8091780090919C
:10076000790080932601D0902501CD2DD0E00E9404
:100770008700209709F072C080E00E94A300C0911A
:100780002601809123018093240187E291E00E9459
:100790004901181619060CF0A7C0D0E087E291E0D5
:1007A0000E9427018093230182E191E00E946B0265
:1007B00060912301677070E090E080E04AE00E9461
:1007C0001D0284E191E0CA30D10538F085E191E065
:1007D000C436D10510F086E191E00E946B02CE0193
:1007E0000E94780284E191E00E946B0290E080E038
:1007F0000E94780280912301809325010E94F801D4
:100800002B013C0184E1882E912CA12CB12C0E945B
:10081000F8016419750986099709683E73408105D6
:100820009105A8F3F1E08F1A9108A108B10828EE0C
:10083000420E23E0521E611C711C81149104A1041C
:10084000B10429F70115110509F47CCF0E94550167
:10085000882309F477CF0E94000074CFCF3FD105E1
:1008600011F481E08ACFF7018491833019F140F4CB
:100870008130B1F08230C9F0C038D10594F77CCF17
:10088000873011F1883041F18430B1F780918000D8
:10089000806280938000D0938B00C0938A006FCFDA
:1008A00084B5806884BDD7BC6ACF84B5806284BDBE
:1008B000D8BC65CF80918000806880938000D09301
:1008C0008900C09388005BCF8091B00080688093DE
:1008D000B000D092B30053CF8091B000806280937B
:1008E000B000D092B4004BCF8091240185CFE7E2D5
:1008F000F1E01382128288EE93E0A0E0B0E08483FE
:100900009583A683B78384E091E09183808385EC0F
:1009100090E09587848784EC90E09787868780ECC9
:1009200090E0918B808B81EC90E0938B828B82ECBA
:1009300090E0958B848B86EC90E0978B868B118E64
:10094000128E138E148E0895A1E21A2EAA1BBB1BC1
:10095000FD010DC0AA1FBB1FEE1FFF1FA217B3078B
:10096000E407F50720F0A21BB30BE40BF50B661FA1
:10097000771F881F991F1A9469F760957095809565
:1009800090959B01AC01BD01CF010895EE0FFF1FB3
:0C0990000590F491E02D0994F894FFCF3D
:10099C00000000008B01EB001801D8014901270170
:0A09AC003B012A002020202000005B
:00000001FF
