:100000000C945D000C9485000C9485000C94850084
:100010000C9485000C9485000C9485000C9485004C
:100020000C9485000C9485000C9485000C9485003C
:100030000C9485000C9485000C9485000C9485002C
:100040000C9456030C9485000C9424030C94FE022B
:100050000C9485000C9485000C9485000C9485000C
:100060000C9485000C94850000000008000201003B
:100070000003040700000000000000000000000072
:10008000250028002B0000000000240027002A0083
:10009000040404040404040402020202020203032E
:1000A0000303030301020408102040800102040836
:1000B0001020010204081020E90411241FBECFEF14
:1000C000D8E0DEBFCDBF11E0A0E0B1E0E2EFFAE0A2
:1000D00002C005900D92A831B107D9F721E0A8E13F
:1000E000B1E001C01D92A23CB207E1F710E0CDE5FE
:1000F000D0E004C02197FE010E947105CC35D107E4
:10010000C9F70E94A0030C9477050C94000090E0BE
:10011000FC01EC55FF4F249180579F4FFC018491C7
:10012000882399F090E0880F991FFC01EA57FF4F50
:10013000A591B491FC01E458FF4F859194918FB73C
:10014000F894EC91E22BEC938FBF0895AF92BF929D
:10015000CF92DF92EF92FF920F931F93CF93DF9393
:100160006C017B018B01040F151FEB015E01AE18C2
:10017000BF08C017D10759F06991D601ED91FC91E4
:100180000190F081E02DC6010995892B79F7C50111
:10019000DF91CF911F910F91FF90EF90DF90CF9063
:1001A000BF90AF900895FC01538D448D252F30E012
:1001B000842F90E0821B930B541710F0CF96089574
:1001C00001970895FC01918D828D981761F0A28DA1
:1001D000AE0FBF2FB11D5D968C91928D9F5F9F7367
:1001E000928F90E008958FEF9FEF0895FC01918D1D
:1001F000828D981731F0828DE80FF11D858D90E08A
:1002000008958FEF9FEF0895FC01918D228D892F26
:1002100090E0805C9F4F821B91098F73992708950E
:1002200085E291E00E94040121E0892B09F420E09D
:10023000822F089580E090E0892B29F00E94100120
:1002400081110C9400000895FC01A48DA80FB92F12
:10025000B11DA35ABF4F2C91848D90E001968F73EE
:100260009927848FA689B7892C93A089B1898C910D
:10027000837080648C93938D848D981306C002885C
:10028000F389E02D80818F7D80830895EF92FF9226
:100290000F931F93CF93DF93EC0181E0888F9B8DA9
:1002A0008C8D98131AC0E889F989808185FF15C063
:1002B0009FB7F894EE89FF896083E889F989808186
:1002C0008370806480839FBF81E090E0DF91CF9155
:1002D0001F910F91FF90EF900895F62E0B8D10E077
:1002E0000F5F1F4F0F731127E02E8C8D8E110CC0E6
:1002F0000FB607FCFACFE889F989808185FFF5CF31
:10030000CE010E942401F1CFEB8DEC0FFD2FF11DEA
:10031000E35AFF4FF0829FB7F8940B8FEA89FB896D
:1003200080818062CFCFCF93DF93EC01888D8823CB
:10033000B9F0AA89BB89E889F9898C9185FD03C048
:10034000808186FD0DC00FB607FCF7CF8C9185FF2D
:10035000F2CF808185FFEDCFCE010E942401E9CF4D
:10036000DF91CF91089590E0FC01E859FF4F24916F
:10037000FC01EC55FF4F3491FC01E057FF4FE49135
:10038000EE23C9F0222339F0233001F1A8F4213003
:1003900019F1223029F1F0E0EE0FFF1FE458FF4F72
:1003A000A591B4918FB7F894EC91611126C0309566
:1003B0003E233C938FBF08952730A9F02830C9F021
:1003C000243049F7809180008F7D03C080918000A8
:1003D0008F7780938000DFCF84B58F7784BDDBCFAC
:1003E00084B58F7DFBCF8091B0008F778093B00074
:1003F000D2CF8091B0008F7DF9CF3E2BDACFCF9353
:10040000DF93EC0185E00E948700209731F460E0E3
:1004100085E0DF91CF910C94B301CF3FD10511F46A
:1004200061E0F6CFEDE6F0E0E491E33029F140F44D
:10043000E130B1F0E230D9F0C038D1058CF7E7CF28
:10044000E73021F1E83051F1E430B1F780918000DC
:10045000806280938000D0938B00C0938A0004C098
:1004600084B5806884BDC7BDDF91CF91089584B500
:10047000806284BDC8BDF8CF809180008068809381
:100480008000D0938900C0938800EECF8091B000A7
:1004900080688093B000C093B300E6CF8091B00035
:1004A00080628093B000C093B400DECF3FB7F89471
:1004B00080911D0190911E01A0911F01B09120011A
:1004C00026B5A89B05C02F3F19F00196A11DB11DAF
:1004D0003FBFBA2FA92F982F8827BC01CD01620FEB
:1004E000711D811D911D42E0660F771F881F991FA6
:1004F0004A95D1F70895FC0101900020E9F7319762
:10050000AF01481B590BBC0185E291E00C94A60099
:100510008F929F92AF92BF920F931F93CF93DF93CF
:10052000CDB7DEB7A1970FB6F894DEBF0FBECDBF33
:1005300019A2423008F44AE08E010F5D1F4F842E4D
:10054000912CB12CA12CA50194010E944005E62F0D
:10055000B901CA01EA30F4F4E05DD801EE938D01EF
:10056000232B242B252B79F790E080E0109719F0AE
:10057000CD010E947B02A1960FB6F894DEBF0FBE9C
:10058000CDBFDF91CF911F910F91BF90AF909F9002
:100590008F900895E95CE1CFCF92DF92EF92FF92C6
:1005A000CF93DF936C01990FEE08FF08F7FE1FC091
:1005B0006DE285E291E00E944601EC016627772713
:1005C000CB016C197D098E099F094AE00E948802BF
:1005D000C80FD91F82E191E00E947B028C0F9D1F02
:1005E000DF91CF91FF90EF90DF90CF9008954AE098
:1005F000C701B6010E948802EC01ECCF1F920F9256
:100600000FB60F9211242F933F934F935F936F93E5
:100610007F938F939F93AF93BF93EF93FF9385E265
:1006200091E00E942401FF91EF91BF91AF919F91C2
:100630008F917F916F915F914F913F912F910F908B
:100640000FBE0F901F9018951F920F920FB60F922A
:1006500011242F938F939F93EF93FF93E091350194
:10066000F09136018081E0913B01F0913C0182FDE7
:100670001BC0908180913E018F5F8F7320913F015D
:10068000821741F0E0913E01F0E0EB5DFE4F958F67
:1006900080933E01FF91EF919F918F912F910F9049
:1006A0000FBE0F901F9018958081F4CF1F920F926C
:1006B0000FB60F9211242F933F938F939F93AF9375
:1006C000BF938091190190911A01A0911B01B091E3
:1006D0001C013091180123E0230F2D3758F50196A6
:1006E000A11DB11D209318018093190190931A0147
:1006F000A0931B01B0931C0180911D0190911E01DC
:10070000A0911F01B09120010196A11DB11D809300
:100710001D0190931E01A0931F01B0932001BF9172
:10072000AF919F918F913F912F910F900FBE0F909E
:100730001F90189526E8230F0296A11DB11DD2CF58
:10074000789484B5826084BD84B5816084BD85B5AC
:10075000826085BD85B5816085BD80916E008160B8
:1007600080936E001092810080918100826080935E
:100770008100809181008160809381008091800060
:100780008160809380008091B10084608093B1008B
:100790008091B00081608093B00080917A00846085
:1007A00080937A0080917A00826080937A008091B1
:1007B0007A00816080937A0080917A0080688093CB
:1007C0007A001092C10085E00E9487008BE00E94B1
:1007D00087008AE00E948700E0913501F0913601A0
:1007E00082E08083E0913101F09132011082E0914A
:1007F0003301F09134018FEC808310923D01E09140
:100800003901F0913A0186E08083E0913701F0915F
:100810003801808180618083E0913701F091380157
:10082000808188608083E0913701F0913801808178
:1008300080688083E0913701F091380180818F7D5D
:10084000808396E4392E24EFC22EDD24D394E12C4C
:10085000F12C00E010E030927C0080917A008064FE
:1008600080937A0080917A0086FDFCCF8091780099
:1008700020917900322F282F3093240120932301D7
:100880002901712C612C253F81E0380708F06EC0EA
:10089000A5EFB0E00E946205A70196010E9416052F
:1008A0002F5F310941095109309322012093210121
:1008B0004AE0C301B2010E94880285E191E00E94F2
:1008C0007B0280912101909122010E94CC028091B3
:1008D00021019091220181302FEF92070CF473C017
:1008E000EC018F3F910519F014F0CFEFD0E08B3081
:1008F00091050CF458C061E08BE00E94B30160E008
:100900008AE00E94B301CE010E94FF010E945602BC
:100910004B015C0184E6482E512C612C712C0E9405
:100920005602681979098A099B09683E7340810556
:100930009105A8F381E0481A51086108710828EE72
:10094000820E23E0921EA11CB11C411451046104CB
:10095000710429F70115110509F47DCF0E941001DA
:10096000882309F478CF0E94000075CF2B503240C5
:10097000253F314098F4A30192012B5032404109A8
:100980005109A5EFB0E00E943505A70196010E942C
:100990001605265F3F4F4F4F5F4F86CF10922201C3
:1009A0001092210185CF863F9F4F84F460E08BE059
:1009B0000E94B30161E08AE00E94B3018827992771
:1009C0008C1B9D0BA1CFC1E0DFEFF0CF90E080E06A
:1009D0009BCFE5E2F1E01382128288EE93E0A0E083
:1009E000B0E084839583A683B78384E091E091830C
:1009F000808385EC90E09587848784EC90E09787EE
:100A0000868780EC90E0918B808B81EC90E0938BDB
:100A1000828B82EC90E0958B848B86EC90E0978BB8
:100A2000868B118E128E138E148E0895052E97FBD1
:100A30001EF400940E942D0557FD07D00E9440052A
:100A400007FC03D04EF40C942D055095409530953D
:100A500021953F4F4F4F5F4F08959095809570952A
:100A600061957F4F8F4F9F4F08950E946205A59F0C
:100A7000900DB49F900DA49F800D911D1124089599
:100A8000A1E21A2EAA1BBB1BFD010DC0AA1FBB1F92
:100A9000EE1FFF1FA217B307E407F50720F0A21B04
:100AA000B30BE40BF50B661F771F881F991F1A9471
:100AB00069F760957095809590959B01AC01BD019B
:100AC000CF010895A29FB001B39FC001A39F700DF5
:100AD000811D1124911DB29F700D811D1124911D46
:100AE0000895EE0FFF1F0590F491E02D0994F894FE
:020AF000FFCF36
:100AF200000000004601A600D30093010401E200B9
:080B0200F6000D0A00200000BE
:00000001FF
