:100000000C9462000C948A000C948A000C948A0070
:100010000C948A000C948A000C948A000C948A0038
:100020000C948A000C948A000C948A000C948A0028
:100030000C948A000C948A000C948A000C948A0018
:100040000C9431020C948A000C94FF010C94D90199
:100050000C948A000C948A000C948A000C948A00F8
:100060000C948A000C948A000000000025002800EF
:100070002B0000000000240027002A0000000000E0
:1000800023002600290004040404040404040202DA
:100090000202020203030303030301020408102007
:1000A0004080010204081020010204081020000012
:1000B0000008000201000003040700000000000027
:1000C0000000EB0311241FBECFEFD8E0DEBFCDBF91
:1000D00011E0A0E0B1E0E4E8F8E002C005900D9284
:1000E000A232B107D9F721E0A2E2B1E001C01D922E
:1000F000AC3CB207E1F710E0C2E6D0E004C02197C3
:10010000FE010E943A04C136D107C9F70E947B0262
:100110000C9440040C940000AF92BF92CF92DF92F7
:10012000EF92FF920F931F93CF93DF936C017B01AC
:100130008B01040F151FEB015E01AE18BF08C0173D
:10014000D10759F06991D601ED91FC910190F081B0
:10015000E02DC6010995892B79F7C501DF91CF9173
:100160001F910F91FF90EF90DF90CF90BF90AF90D5
:100170000895FC01538D448D252F30E0842F90E0AD
:10018000821B930B541710F0CF9608950197089592
:10019000FC01918D828D981761F0A28DAE0FBF2F5B
:1001A000B11D5D968C91928D9F5F9F73928F90E0B1
:1001B00008958FEF9FEF0895FC01918D828D981720
:1001C00031F0828DE80FF11D858D90E008958FEF5D
:1001D0009FEF0895FC01918D228D892F90E0805C26
:1001E0009F4F821B91098F73992708958FE291E0A9
:1001F0000E94EA0021E0892B09F420E0822F089573
:1002000080E090E0892B29F00E94F60081110C9487
:1002100000000895FC01A48DA80FB92FB11DA35AA9
:10022000BF4F2C91848D90E001968F739927848F16
:10023000A689B7892C93A089B1898C918370806439
:100240008C93938D848D981306C00288F389E02DDA
:1002500080818F7D80830895EF92FF920F931F938B
:10026000CF93DF93EC0181E0888F9B8D8C8D981369
:100270001AC0E889F989808185FF15C09FB7F89475
:10028000EE89FF896083E889F989808183708064C1
:1002900080839FBF81E090E0DF91CF911F910F910C
:1002A000FF90EF900895F62E0B8D10E00F5F1F4F1B
:1002B0000F731127E02E8C8D8E110CC00FB607FC2A
:1002C000FACFE889F989808185FFF5CFCE010E94B8
:1002D0000A01F1CFEB8DEC0FFD2FF11DE35AFF4F1B
:1002E000F0829FB7F8940B8FEA89FB898081806246
:1002F000CFCFCF93DF93EC01888D8823B9F0AA8903
:10030000BB89E889F9898C9185FD03C0808186FDD0
:100310000DC00FB607FCF7CF8C9185FFF2CF80811F
:1003200085FFEDCFCE010E940A01E9CFDF91CF9189
:1003300008953FB7F8948091270190912801A091EA
:100340002901B0912A0126B5A89B05C02F3F19F0BD
:100350000196A11DB11D3FBFBA2FA92F982F882745
:10036000BC01CD01620F711D811D911D42E0660F20
:10037000771F881F991F4A95D1F70895FC010190B6
:100380000020E9F73197AF01481B590BBC018FE200
:1003900091E00C948C00CF93DF930E94BE01EC019E
:1003A00082E191E00E94BE018C0F9D1FDF91CF91F1
:1003B00008951F920F920FB60F9211242F933F931F
:1003C0004F935F936F937F938F939F93AF93BF935D
:1003D000EF93FF938FE291E00E940A01FF91EF916A
:1003E000BF91AF919F918F917F916F915F914F914D
:1003F0003F912F910F900FBE0F901F9018951F9255
:100400000F920FB60F9211242F938F939F93EF9318
:10041000FF93E0913F01F09140018081E09145011F
:10042000F091460182FD1BC09081809148018F5F51
:100430008F7320914901821741F0E0914801F0E06B
:10044000E15DFE4F958F80934801FF91EF919F9161
:100450008F912F910F900FBE0F901F901895808154
:10046000F4CF1F920F920FB60F9211242F933F9348
:100470008F939F93AF93BF93809123019091240119
:10048000A0912501B09126013091220123E0230F94
:100490002D3758F50196A11DB11D2093220180939F
:1004A000230190932401A0932501B093260180910C
:1004B000270190912801A0912901B0912A0101966C
:1004C000A11DB11D8093270190932801A0932901BC
:1004D000B0932A01BF91AF919F918F913F912F913E
:1004E0000F900FBE0F901F90189526E8230F0296CD
:1004F000A11DB11DD2CFCF93DF93CDB7DEB7A197AA
:100500000FB6F894DEBF0FBECDBF789484B582607D
:1005100084BD84B5816084BD85B5826085BD85B5A7
:10052000816085BD80916E00816080936E00109225
:1005300081008091810082608093810080918100A0
:100540008160809381008091800081608093800031
:100550008091B10084608093B1008091B00081608F
:100560008093B00080917A00846080937A008091BB
:100570007A00826080937A0080917A008160809313
:100580007A0080917A00806880937A001092C1008E
:10059000E1EAF0E024915DE8252E50E0352EF101EE
:1005A00084918823C9F090E0880F991FFC01EE58D0
:1005B000FF4FA591B491FC01E859FF4F459154912B
:1005C0009FB7F8943C91822F809583238C93FA01F6
:1005D0008081282B20839FBFE0913F01F091400153
:1005E00082E08083E0913B01F0913C011082E09138
:1005F0003D01F0913E018FEC808310924701E09124
:100600004301F091440186E08083E0914101F09143
:100610004201808180618083E0914101F09142013B
:10062000808188608083E0914101F0914201808166
:1006300080688083E0914101F091420180818F7D4B
:10064000808385E191E00E94CB013AE0432E512C5A
:10065000612C712C00E010E080912E0180932D011F
:10066000E5EBF0E08491E1EAF0E09491F10124916E
:100670002223C9F0882359F0833009F48DC008F093
:1006800080C0813009F48EC0823009F48FC0E22F1F
:10069000F0E0EE0FFF1FE458FF4FA591B4918C914D
:1006A000982381E009F480E080932E01811139C004
:1006B00080912D018130A9F580912C018F5F8031CF
:1006C00008F081C080932C0180912B0181117EC0A4
:1006D000F1E0F0932B018AE191E00E94CB0120919F
:1006E0002C0130E050E040E019A27E0181E2E80EEA
:1006F000F11CCA01B901A30192010E941804605DB6
:10070000F70162937F01211531054105510589F7F4
:10071000309719F0CF010E94BE0182E191E00E9462
:10072000BE010E9499014B015C0184E6C82ED12CC8
:10073000E12CF12C0E949901681979098A099B0919
:10074000683E734081059105A8F3F1E0CF1AD10806
:10075000E108F10828EE820E23E0921EA11CB11CD4
:10076000C114D104E104F10429F70115110509F4BC
:1007700073CF0E94F600882309F46ECF0E94000018
:100780006BCF8730B1F08830D1F0843009F07FCF63
:10079000809180008F7D03C0809180008F7780934F
:1007A000800075CF84B58F7784BD71CF84B58F7D80
:1007B000FBCF8091B0008F778093B00068CF80919D
:1007C000B0008F7DF9CF10922C017ECF10922B01BB
:1007D0008DE191E082CFEFE2F1E01382128288EEA8
:1007E00093E0A0E0B0E084839583A683B78384E0A0
:1007F00091E09183808385EC90E09587848784ECF9
:1008000090E09787868780EC90E0918B808B81ECDD
:1008100090E0938B828B82EC90E0958B848B86ECBE
:1008200090E0978B868B118E128E138E148E089506
:10083000A1E21A2EAA1BBB1BFD010DC0AA1FBB1FE4
:10084000EE1FFF1FA217B307E407F50720F0A21B56
:10085000B30BE40BF50B661F771F881F991F1A94C3
:1008600069F760957095809590959B01AC01BD01ED
:10087000CF010895EE0FFF1F0590F491E02D09942C
:04088000F894FFCF1A
:10088400000000002C018C00B9007901EA00C800C6
:10089400DC000D0A0074657374004F4E004F464629
:0208A400000052
:00000001FF
